{
  "_format": "hh-sol-artifact-1",
  "contractName": "ResearchDeposit",
  "sourceName": "contracts/ResearchDeposit.sol",
  "abi": [
    {
      "anonymous": false,
      "inputs": [
        {
          "indexed": true,
          "internalType": "string",
          "name": "researchId",
          "type": "string"
        },
        {
          "indexed": false,
          "internalType": "string",
          "name": "title",
          "type": "string"
        },
        {
          "indexed": false,
          "internalType": "string",
          "name": "authorId",
          "type": "string"
        },
        {
          "indexed": false,
          "internalType": "uint256",
          "name": "timestamp",
          "type": "uint256"
        }
      ],
      "name": "ResearchDeposited",
      "type": "event"
    },
    {
      "inputs": [
        {
          "internalType": "string",
          "name": "researchId",
          "type": "string"
        },
        {
          "internalType": "string",
          "name": "title",
          "type": "string"
        },
        {
          "internalType": "string",
          "name": "authorId",
          "type": "string"
        },
        {
          "internalType": "string",
          "name": "ipfsHash",
          "type": "string"
        },
        {
          "internalType": "bytes32",
          "name": "contentHash",
          "type": "bytes32"
        }
      ],
      "name": "depositResearch",
      "outputs": [],
      "stateMutability": "nonpayable",
      "type": "function"
    },
    {
      "inputs": [],
      "name": "getAllResearchIds",
      "outputs": [
        {
          "internalType": "string[]",
          "name": "",
          "type": "string[]"
        }
      ],
      "stateMutability": "view",
      "type": "function"
    },
    {
      "inputs": [
        {
          "internalType": "string",
          "name": "researchId",
          "type": "string"
        }
      ],
      "name": "getResearch",
      "outputs": [
        {
          "internalType": "string",
          "name": "title",
          "type": "string"
        },
        {
          "internalType": "string",
          "name": "authorId",
          "type": "string"
        },
        {
          "internalType": "string",
          "name": "ipfsHash",
          "type": "string"
        },
        {
          "internalType": "bytes32",
          "name": "contentHash",
          "type": "bytes32"
        },
        {
          "internalType": "uint256",
          "name": "timestamp",
          "type": "uint256"
        }
      ],
      "stateMutability": "view",
      "type": "function"
    },
    {
      "inputs": [],
      "name": "getResearchCount",
      "outputs": [
        {
          "internalType": "uint256",
          "name": "",
          "type": "uint256"
        }
      ],
      "stateMutability": "view",
      "type": "function"
    }
  ],
  "bytecode": "0x608060405234801561001057600080fd5b50611405806100206000396000f3fe608060405234801561001057600080fd5b506004361061004c5760003560e01c806381be57db1461005157806386ffef1e14610085578063bf09d393146100a1578063f2457695146100bf575b600080fd5b61006b600480360381019061006691906108a9565b6100dd565b60405161007c9594939291906109b8565b60405180910390f35b61009f600480360381019061009a9190610a4c565b610396565b005b6100a9610754565b6040516100b69190610b48565b60405180910390f35b6100c7610761565b6040516100d49190610c6f565b60405180910390f35b6060806060600080600087876040516100f7929190610cd0565b908152602001604051809103902060050160009054906101000a900460ff16610155576040517f08c379a000000000000000000000000000000000000000000000000000000000815260040161014c90610d35565b60405180910390fd5b6000808888604051610168929190610cd0565b90815260200160405180910390206040518060c001604052908160008201805461019190610d84565b80601f01602080910402602001604051908101604052809291908181526020018280546101bd90610d84565b801561020a5780601f106101df5761010080835404028352916020019161020a565b820191906000526020600020905b8154815290600101906020018083116101ed57829003601f168201915b5050505050815260200160018201805461022390610d84565b80601f016020809104026020016040519081016040528092919081815260200182805461024f90610d84565b801561029c5780601f106102715761010080835404028352916020019161029c565b820191906000526020600020905b81548152906001019060200180831161027f57829003601f168201915b505050505081526020016002820180546102b590610d84565b80601f01602080910402602001604051908101604052809291908181526020018280546102e190610d84565b801561032e5780601f106103035761010080835404028352916020019161032e565b820191906000526020600020905b81548152906001019060200180831161031157829003601f168201915b5050505050815260200160038201548152602001600482015481526020016005820160009054906101000a900460ff16151515158152505090508060000151816020015182604001518360600151846080015195509550955095509550509295509295909350565b600089899050116103dc576040517f08c379a00000000000000000000000000000000000000000000000000000000081526004016103d390610e01565b60405180910390fd5b600089896040516103ee929190610cd0565b908152602001604051809103902060050160009054906101000a900460ff161561044d576040517f08c379a000000000000000000000000000000000000000000000000000000000815260040161044490610e6d565b60405180910390fd5b60008787905011610493576040517f08c379a000000000000000000000000000000000000000000000000000000000815260040161048a90610ed9565b60405180910390fd5b600085859050116104d9576040517f08c379a00000000000000000000000000000000000000000000000000000000081526004016104d090610f45565b60405180910390fd5b6000838390501161051f576040517f08c379a000000000000000000000000000000000000000000000000000000000815260040161051690610fb1565b60405180910390fd5b6040518060c0016040528088888080601f016020809104026020016040519081016040528093929190818152602001838380828437600081840152601f19601f82011690508083019250505050505050815260200186868080601f016020809104026020016040519081016040528093929190818152602001838380828437600081840152601f19601f82011690508083019250505050505050815260200184848080601f016020809104026020016040519081016040528093929190818152602001838380828437600081840152601f19601f8201169050808301925050505050505081526020018281526020014281526020016001151581525060008a8a60405161062d929190610cd0565b9081526020016040518091039020600082015181600001908161065091906111ac565b50602082015181600101908161066691906111ac565b50604082015181600201908161067c91906111ac565b50606082015181600301556080820151816004015560a08201518160050160006101000a81548160ff02191690831515021790555090505060018989909180600181540180825580915050600190039060005260206000200160009091929091929091929091925091826106f1929190611289565b508888604051610702929190610cd0565b60405180910390207f9c4b13609e10a0b67acb219b5c92be99ef1db944acd057b79a4452ac978692a98888888842604051610741959493929190611386565b60405180910390a2505050505050505050565b6000600180549050905090565b60606001805480602002602001604051908101604052809291908181526020016000905b828210156108315783829060005260206000200180546107a490610d84565b80601f01602080910402602001604051908101604052809291908181526020018280546107d090610d84565b801561081d5780601f106107f25761010080835404028352916020019161081d565b820191906000526020600020905b81548152906001019060200180831161080057829003601f168201915b505050505081526020019060010190610785565b50505050905090565b600080fd5b600080fd5b600080fd5b600080fd5b600080fd5b60008083601f84011261086957610868610844565b5b8235905067ffffffffffffffff81111561088657610885610849565b5b6020830191508360018202830111156108a2576108a161084e565b5b9250929050565b600080602083850312156108c0576108bf61083a565b5b600083013567ffffffffffffffff8111156108de576108dd61083f565b5b6108ea85828601610853565b92509250509250929050565b600081519050919050565b600082825260208201905092915050565b60005b83811015610930578082015181840152602081019050610915565b60008484015250505050565b6000601f19601f8301169050919050565b6000610958826108f6565b6109628185610901565b9350610972818560208601610912565b61097b8161093c565b840191505092915050565b6000819050919050565b61099981610986565b82525050565b6000819050919050565b6109b28161099f565b82525050565b600060a08201905081810360008301526109d2818861094d565b905081810360208301526109e6818761094d565b905081810360408301526109fa818661094d565b9050610a096060830185610990565b610a1660808301846109a9565b9695505050505050565b610a2981610986565b8114610a3457600080fd5b50565b600081359050610a4681610a20565b92915050565b600080600080600080600080600060a08a8c031215610a6e57610a6d61083a565b5b60008a013567ffffffffffffffff811115610a8c57610a8b61083f565b5b610a988c828d01610853565b995099505060208a013567ffffffffffffffff811115610abb57610aba61083f565b5b610ac78c828d01610853565b975097505060408a013567ffffffffffffffff811115610aea57610ae961083f565b5b610af68c828d01610853565b955095505060608a013567ffffffffffffffff811115610b1957610b1861083f565b5b610b258c828d01610853565b93509350506080610b388c828d01610a37565b9150509295985092959850929598565b6000602082019050610b5d60008301846109a9565b92915050565b600081519050919050565b600082825260208201905092915050565b6000819050602082019050919050565b600082825260208201905092915050565b6000610bab826108f6565b610bb58185610b8f565b9350610bc5818560208601610912565b610bce8161093c565b840191505092915050565b6000610be58383610ba0565b905092915050565b6000602082019050919050565b6000610c0582610b63565b610c0f8185610b6e565b935083602082028501610c2185610b7f565b8060005b85811015610c5d5784840389528151610c3e8582610bd9565b9450610c4983610bed565b925060208a01995050600181019050610c25565b50829750879550505050505092915050565b60006020820190508181036000830152610c898184610bfa565b905092915050565b600081905092915050565b82818337600083830152505050565b6000610cb78385610c91565b9350610cc4838584610c9c565b82840190509392505050565b6000610cdd828486610cab565b91508190509392505050565b7f526573656172636820646f6573206e6f74206578697374000000000000000000600082015250565b6000610d1f601783610901565b9150610d2a82610ce9565b602082019050919050565b60006020820190508181036000830152610d4e81610d12565b9050919050565b7f4e487b7100000000000000000000000000000000000000000000000000000000600052602260045260246000fd5b60006002820490506001821680610d9c57607f821691505b602082108103610daf57610dae610d55565b5b50919050565b7f52657365617263682049442063616e6e6f7420626520656d7074790000000000600082015250565b6000610deb601b83610901565b9150610df682610db5565b602082019050919050565b60006020820190508181036000830152610e1a81610dde565b9050919050565b7f526573656172636820616c7265616479206465706f7369746564000000000000600082015250565b6000610e57601a83610901565b9150610e6282610e21565b602082019050919050565b60006020820190508181036000830152610e8681610e4a565b9050919050565b7f5469746c652063616e6e6f7420626520656d7074790000000000000000000000600082015250565b6000610ec3601583610901565b9150610ece82610e8d565b602082019050919050565b60006020820190508181036000830152610ef281610eb6565b9050919050565b7f417574686f722049442063616e6e6f7420626520656d70747900000000000000600082015250565b6000610f2f601983610901565b9150610f3a82610ef9565b602082019050919050565b60006020820190508181036000830152610f5e81610f22565b9050919050565b7f4950465320486173682063616e6e6f7420626520656d70747900000000000000600082015250565b6000610f9b601983610901565b9150610fa682610f65565b602082019050919050565b60006020820190508181036000830152610fca81610f8e565b9050919050565b7f4e487b7100000000000000000000000000000000000000000000000000000000600052604160045260246000fd5b60008190508160005260206000209050919050565b60006020601f8301049050919050565b600082821b905092915050565b6000600883026110627fffffffffffffffffffffffffffffffffffffffffffffffffffffffffffffffff82611025565b61106c8683611025565b95508019841693508086168417925050509392505050565b6000819050919050565b60006110a96110a461109f8461099f565b611084565b61099f565b9050919050565b6000819050919050565b6110c38361108e565b6110d76110cf826110b0565b848454611032565b825550505050565b600090565b6110ec6110df565b6110f78184846110ba565b505050565b5b8181101561111b576111106000826110e4565b6001810190506110fd565b5050565b601f8211156111605761113181611000565b61113a84611015565b81016020851015611149578190505b61115d61115585611015565b8301826110fc565b50505b505050565b600082821c905092915050565b600061118360001984600802611165565b1980831691505092915050565b600061119c8383611172565b9150826002028217905092915050565b6111b5826108f6565b67ffffffffffffffff8111156111ce576111cd610fd1565b5b6111d88254610d84565b6111e382828561111f565b600060209050601f8311600181146112165760008415611204578287015190505b61120e8582611190565b865550611276565b601f19841661122486611000565b60005b8281101561124c57848901518255600182019150602085019450602081019050611227565b868310156112695784890151611265601f891682611172565b8355505b6001600288020188555050505b505050505050565b600082905092915050565b611293838361127e565b67ffffffffffffffff8111156112ac576112ab610fd1565b5b6112b68254610d84565b6112c182828561111f565b6000601f8311600181146112f057600084156112de578287013590505b6112e88582611190565b865550611350565b601f1984166112fe86611000565b60005b8281101561132657848901358255600182019150602085019450602081019050611301565b86831015611343578489013561133f601f891682611172565b8355505b6001600288020188555050505b50505050505050565b60006113658385610901565b9350611372838584610c9c565b61137b8361093c565b840190509392505050565b600060608201905081810360008301526113a1818789611359565b905081810360208301526113b6818587611359565b90506113c560408301846109a9565b969550505050505056fea2646970667358221220f4235eabbc19c893357e8056553cc0ee793e3d681592765bfae11133e06add2564736f6c63430008130033",
  "linkReferences": {},
  "deployedLinkReferences": {}
}